:020000040800F2
:10000000481A00209D010008A1140008A30200085E
:10001000A9010008F90500086117000800000000A8
:10002000000000000000000000000000AF01000818
:10003000FB05000800000000EF010008A314000801
:10004000B7010008B7010008B7010008B7010008B0
:10005000B7010008B7010008B7010008B7010008A0
:10006000B7010008B7010008B7010008B701000890
:10007000B7010008B7010008B7010008B701000880
:10008000B7010008B7010008B7010008B701000870
:10009000B7010008B7010008B7010008B701000860
:1000A000B7010008B7010008B7010008B701000850
:1000B000B7010008B7010008B7010008B701000840
:1000C000B7010008B7010008B7010008B701000830
:1000D000B7010008B7010008B7010008B701000820
:1000E000B7010008B7010008B7010008B701000810
:1000F000B7010008B7010008B7010008B701000800
:10010000B7010008B7010008B7010008B7010008EF
:10011000B7010008B7010008B7010008B7010008DF
:10012000B7010008B7010008B7010008B7010008CF
:10013000B7010008B7010008B7010008B7010008BF
:10014000B7010008B7010008B7010008B7010008AF
:10015000B7010008B7010008B7010008B70100089F
:10016000B7010008B7010008B7010008B70100088F
:10017000B7010008B7010008B7010008000000003F
:10018000B7010008B7010008DFF80CD000F05EF9F5
:1001900000480047C7040008481A00200648804766
:1001A00006480047FEE7FEE7FEE7FEE7FEE7FEE75C
:1001B000FEE7FEE7FEE7FEE7B91500088901000843
:1001C000EFF3108072B6704780F310887047434A8F
:1001D0001368012B04D04FF001031360404A1060F4
:1001E000404A116040484FF0805101607047EFF382
:1001F000108272B63948016851B34FF000010160B6
:100200003748016891B1EFF309811EF0100F08BF64
:1002100021ED108B21E9F00F4FF000041EF0100FBC
:1002200008BF012441F8044D006801602D490968A8
:10023000096808C9B1E8F00F002B18BFB1EC108BAA
:1002400081F309884EF0100E002B18BF2EF0100E0F
:1002500082F310884EF0040E704722490860EFF3D5
:10026000148222F0040282F314881D494FF000002A
:1002700008601A494FF0010008601C484FF47F01E4
:10028000D0F8002041EA0201016017484FF0805188
:10029000016017480068006880F3088861B662B69C
:1002A00070471EF0040F0CBFEFF30880EFF30980D6
:1002B00020E9F00F40F804ED40F804ED1EF0040FC3
:1002C0000CBF80F3088880F3098800B502F0EAFFCC
:1002D0005DF804EB4EF0040E70470000280100208A
:1002E000200100202401002004ED00E020ED00E0CA
:1002F00008ED00E02DE9F05F0546002092469B46A0
:1003000088460646814640241BE02846414647462B
:10031000224600F08AF853465A46C01A914110D33B
:1003200011461846224600F071F82D1A67EB0108B5
:100330004F4622460120002100F068F817EB000923
:100340004E41201EA4F10104DFDC484631462A4616
:100350004346BDE8F09F40EA01039B0703D009E054
:1003600008C9121F08C0042AFAD203E011F8013BA1
:1003700000F8013B521EF9D27047D2B201E000F8FA
:10038000012B491EFBD270470022F6E710B5134639
:100390000A4604461946FFF7F0FF204610BD421EEC
:1003A00012F8013F002BFBD111F8013B02F8013B91
:1003B000002BF9D1704710B5044604E00B7800F823
:1003C000013B03B1491C521EF8D2204610BD421C0D
:1003D00010F8011B0029FBD1801A7047034611F861
:1003E000012B00F8012B002AF9D11846704730B5CF
:1003F00005460020034600E05B1C934205D2EC5CFE
:10040000C85C201A01D1002CF6D130BD202A04DBB3
:10041000203A00FA02F1002070479140C2F1200317
:1004200020FA03F3194390407047202A04DB203A56
:1004300021FA02F00021704721FA02F3D040C2F104
:10044000200291400843194670470000064C074DB2
:1004500006E0E06840F0010394E807009847103494
:10046000AC42F6D3FFF794FED8590008F8590008BB
:1004700070B58C1810F8015B15F0070301D110F866
:10048000013B2A1106D110F8012B03E010F8016B93
:1004900001F8016B5B1EF9D12B0705D40023521E16
:1004A0000DD401F8013BFAE710F8013BCB1A921C7E
:1004B00003E013F8015B01F8015B521EF9D5A1427C
:1004C000D8D3002070BD10B504F00EFD002010BD83
:1004D000464910B54A6822F440324A604A68436887
:1004E0001A434A6001684A6822F480724A600168CF
:1004F0004A68036942EA03224A6001684A6822F0B6
:1005000040724A6001684A6883681A434A60016819
:100510008A6822F400628A6001688A68C3681A43A4
:100520008A60816A6FF07062D14201688A6822F045
:1005300070628A6001688A680CD0836A1A438A6094
:1005400001688A6822F040528A6001688A68C36A3A
:100550001A4301E022F040528A6001688A6822F062
:1005600002028A6001688A68037E42EA43028A6066
:1005700090F82010002901684A680FD042F4006208
:100580004A6001684A6822F460424A6001684A6829
:10059000174C436A04EB43331A4301E022F4006230
:1005A0004A600168CA6A22F47002CA620168CA6AB3
:1005B000838B104C04EB03531A43CA6201688A68A8
:1005C00022F400728A6001688A6890F8303042EA4A
:1005D00043228A6001688A6822F480628A60016826
:1005E0008A68406942EA8020886010BD002301408B
:1005F00000E0FFFF0000F0FFFEE7704770470000DB
:1006000078B50024009490F83C20012A19D00122EA
:1006100080F83C200A6807230568092A13D9EE6888
:100620000A3A02EB420293409E43EE600B788A68DE
:100630000A3B03EB43039A400368DD682A43DA6010
:1006400010E0022078BD2E6902EB420293409E43E7
:100650002E610B788A6803EB43039A4003681D6997
:100660002A431A614A681F23072A13D205686E6B52
:10067000521E02EB820293409E436E630B790A88FE
:100680005B1E92B203EB83039A4003685D6B2A43BF
:100690005A6327E005680D2A12D22E6BD21F02EB97
:1006A000820293409E432E630B790A88DB1F92B22D
:1006B00003EB83039A4003681D6B2A431A6311E01E
:1006C000EE6A0D3A02EB820293409E43EE620B7992
:1006D0000A880D3B92B203EB83039A400368DD6AFC
:1006E0002A43DA62164B0568144A9D4206D10D680A
:1006F000122D03D1556845F48005556005689D426B
:1007000018D10B68102B01D0112B13D1536843F46F
:1007100000035360096810290CD10A490A4A096884
:10072000B1FBF2F101EB8101490000E0491E0091AB
:100730000029FBD180F83C40002078BD0023014017
:10074000002001400C00002040420F0070B5040062
:100750004FF0000503D0206C002610B107E0012007
:1007600070BD204600F01CF8666484F83C60206C84
:10077000C00610D4206C20F4885040F002002064A1
:100780002046FFF7A5FE6664206C20F0020040F0D2
:100790000100206400E0012584F83C60284670BD1B
:1007A00010B586B0044614216846FFF7EDFD1549E3
:1007B0002068884224D114480021026842F48072E3
:1007C0000260006800F4807005900F4814380268D9
:1007D00042F001020260006800F00100059007206D
:1007E00000900320CDE901016946084800F010F8A7
:1007F00000221146122000F053F9122000F042F9B5
:1008000006B010BD00200140443802400000024004
:100810002DE9F84F00224FF0010803254FF00F0E8D
:100820000B6808FA02F42340A3426ED14E68012EF1
:1008300005D0022E03D0112E01D0122E12D18668BF
:100840004FEA420C05FA0CF7BE43CF6807FA0CF7E3
:10085000374387604668A6430C79C4F3001494407C
:1008600034434460C668570005FA07FC8C6826EAE2
:100870000C06BC403443C4604C68022C01D0122CDE
:1008800013D1D40800EB8404A346D4F82090540775
:100890004FEAD46A0EFA0AF629EA06090E6906FA40
:1008A0000AF646EA0906CBF8206006680C7926EAC3
:1008B0000C0604F00304BC40344304604C68E400BC
:1008C00065D5364C266846F480462660246822F0BA
:1008D000030604F480440094314C3444A446D4F814
:1008E00008489607370F0EFA07F6B4432D4EB0426C
:1008F00001D1002624E02C4EB04201D101261FE098
:100900002A4EB04202D102261AE040E0284EB04200
:1009100001D1032614E0274EB04201D104260FE096
:10092000254EB04201D105260AE0244EB04201D145
:10093000062605E0224EB04201D1072600E0082637
:10094000BE402643CCF808681E4E34684F689C436E
:10095000FF0300D51C4334601A4C241D26684F68E1
:100960009E43BF0300D51E432660164E08363468EA
:100970004F689C43FF0200D51C433460114E0C3677
:1009800034684F689C43BF0200D51C433460521C3E
:10099000102AFFF445AFBDE8F88F0000443802404C
:1009A0000030014000000240000402400008024004
:1009B000000C0240001002400014024000180240E7
:1009C000001C0240003C01400AB1816170470904EB
:1009D000FBE700000148806870470000000000202D
:1009E0000B4810B5016841F400710160016841F4E1
:1009F00080610160016841F480710160032000F0B2
:100A00006FF8002000F006F800F024F8002010BD78
:100A1000003C024070B50D4D04464FF47A712878C1
:100A2000B1FBF0F00A490968B1FBF0F000F004FBFB
:100A300048B9102C07D200222146501E00F030F891
:100A400000206C6070BD012070BD0000000000201F
:100A50000C0000200A4808B5016841F4804101609B
:100A6000006800F4804000900548001F016841F0D4
:100A700080510160006800F08050009008BD0000C7
:100A800044380240002809DB00F01F020121914098
:100A90004009800000F1E020C0F80011704700001C
:100AA000F0B40E4B1B680C46C3F30223C3F10705D9
:100AB000042D00D90425191D072901D2002300E0C7
:100AC000DB1E012606FA05F1491E214099409E4091
:100AD000761E16403143F0BC00F043BE0CED00E042
:100AE000064900F0070208684FF6FF03184040EA85
:100AF0000220034A10430860704700000CED00E03C
:100B00000000FA052DE9F0470E46050065D0DFF834
:100B10001481D8F80000F7B200F00F00B04207D2FD
:100B200088F80070D8F8000000F00F00B04254D1EF
:100B300028683D4C810712D5400703D5206840F452
:100B4000E05020602878000703D5206840F460401A
:100B500020602068A96820F0F00008432060287811
:100B6000C0072DD0304968680839012812D0022802
:100B700013D0032811D00968890700292DDA2168CC
:100B800021F0030101432160FFF724FF814641F278
:100B9000883A0EE009688903EFE709688901ECE704
:100BA000FFF718FFA0EB0901514502D90320BDE86A
:100BB000F0872068696800F00C00B0EB810FEFD17E
:100BC000D8F80010404601F00F01B14207D9077074
:100BD000006800F00F00B04201D00120E7E728785C
:100BE000400705D52068E96820F4E05008432060FC
:100BF0002878000706D52068296920F4604040EA7B
:100C0000C100206000F038F82168084AC1F30311E0
:100C1000515CC8400649086006480068FFF7FAFEC4
:100C20000020C4E7003C024008380240855000081C
:100C30000C000020040000200448054900680968F1
:100C4000044AC1F38221515CC84070470C00002067
:100C500008380240955000080448054900680968B2
:100C6000044AC1F34231515CC84070470C00002077
:100C70000838024095500008154810B5006810F07B
:100C80000C02144813D01449042A0FD0082A0ED19C
:100C90000F4C241F2268236802F03F025B0207D535
:100CA0002068C0F38810A0FB010106E0084610BDD3
:100CB0002168C1F38811A1FB00010023FFF71AFB93
:100CC0002168C1F30141491C4900B0FBF1F010BD9E
:100CD000083802400024F40040787D012DE9F84FE7
:100CE00004006ED02078DFF83C93C007A9F104051A
:100CF0004AD009F104000168C1F38101012908D03B
:100D00000068C0F3810002280AD1D9F8000040022F
:100D100006D52868800337D560680028E1D033E025
:100D20006068B0F5803F10D0B0F5A02F286810D0D3
:100D300020F480302860286820F4802028606068D3
:100D4000A8B1FFF747FE06460DE0286840F4803062
:100D5000F4E740F480202860F7E700BFFFF73AFE91
:100D6000801B642873D828688003F7D50CE0FFF750
:100D700031FE064605E000BFFFF72CFE801B64280D
:100D8000F0D828688003F7D42078DFF89C828007A9
:100D90004FF0000A3ED5A348001D016811F00C0F6A
:100DA00008D00068C0F3810002280BD1D9F80000F8
:100DB000400207D42868800716D5E068012800D1D2
:100DC00012E02BE1E068B8B10120C8F80000FFF79D
:100DD00001FE064605E000BFFFF7FCFD801B022870
:100DE000C0D828688007F7D52868216920F0F80066
:100DF00040EAC10028600DE0C8F800A0FFF7EAFD56
:100E0000064604E0FFF7E6FD801B02281FD828688D
:100E10008007F7D42078000722D5824E8348616985
:100E2000703671B101210160FFF7D4FD074604E07F
:100E3000FFF7D0FDC01B022809D830688007F7D51E
:100E40000EE0C0F800A0FFF7C5FD074605E082E010
:100E5000FFF7C0FDC01B02287DD830688007F7D49B
:100E60002078400768D5DFF8BCB100270BF13C0BB8
:100E7000DBF80000C0000BD4DBF8001041F080511B
:100E8000CBF80010DBF80000012700F08050009044
:100E9000674E3068C00510D4306840F48070306010
:100EA000FFF798FD009005E0FFF794FD0099401AC8
:100EB000022850D83068C005F6D55A4EA0686C3666
:100EC00001280FD00528306810D020F001003060D4
:100ED000306820F004003060A068B8B1FFF77AFDF8
:100EE00000900FE0306840F00100F4E740F00400AB
:100EF0003060F7E7FFF76EFD0099411A41F2883044
:100F0000814266D830688007F4D50EE0FFF762FDB5
:100F1000009007E0FFF75EFD0099411A41F288302A
:100F2000814256D830688007F4D42FB1DBF8001026
:100F300021F08051CBF80010A069C8B33949091DD0
:100F40000968C1F3810102294AD00228504607D01E
:100F5000C8F8600000E03CE0FFF73CFD04463BE0E1
:100F60004746C8F86000FFF735FD064605E000BFBC
:100F7000FFF730FD801B02282BD828688001F7D4AA
:100F8000D4E907010843A16A2A4A490802EB014152
:100F9000626A41EA8211084394F82C1040EA016128
:100FA000C9F8001001203866FFF714FD044606E07A
:100FB00036E000BFFFF70EFD001B022809D82868A5
:100FC0008001F7D52CE000BFFFF704FD001B0228CD
:100FD00002D90320BDE8F88F28688001F4D41FE00F
:100FE0000128F7D0D9F80000E26900F480019142AD
:100FF00014D1226A00F03F0191420FD147F6C0712F
:10100000626A0140914209D1A26A00F440319142E2
:1010100004D1E16A00F07060884201D00120D9E774
:101020000020D7E70438024000004742800E4742C4
:10103000007000400000FFFF10B5401EB0F1807F3F
:1010400001D3012010BD4FF0E02460610F21601733
:1010500000F087FB0020A06107202061002010BD68
:1010600070B5040004D094F83900002510B106E0F2
:10107000012070BD84F83850204600F023F8242069
:1010800084F839002068C16821F40051C16020460D
:1010900000F0A0FA2068016921F490410161206804
:1010A000416921F02A0141612068C16841F4005181
:1010B000C160E563202084F8390084F83A000020FC
:1010C00070BD0000F0B587B0044614216846FFF7F4
:1010D0005BF9524A23680024514902250326072759
:1010E0005048934238D14E4A1432136843F01003EB
:1010F0001360126802F0100205920A6842F00102C1
:101100000A60096802AA01F0010105917102CDE9A6
:10111000001582E8D0006946FFF77AFB00221146ED
:101120002520FFF7BDFC2520FFF7ACFC3E480068FA
:10113000C16841F02001C1603B491022443901F1EE
:10114000100002F071FD384800231A4637A12838F4
:1011500002F042FE07B0F0BD314ADFF8DCC01032C9
:10116000634535D1136843F400331360126802F409
:10117000003205920A6842F001020A600A6802F031
:10118000010205920A6842F008020A60096802AB8F
:1011900001F0080105910821CDE9001583E8D00090
:1011A0006946FFF735FB2020CDE9000502AB694613
:1011B00083E8D0002148FFF72BFB002211462620B0
:1011C000FFF76EFC2620FFF75DFC174840301FE05C
:1011D0001B488342BED1106840F480201060106824
:1011E00000F480200590086840F00200086008685C
:1011F00002AB00F0020005904FF44060CDE900051D
:1012000083E8D00069460F48FFF702FB06488030AC
:101210000068C16841F02001C1609BE700100140F7
:101220003038024000000240B80100207368656C4D
:101230006C5F72780000000000440040000C024027
:1012400000480040000402402DE9F843044690F8AD
:1012500039001F4616460D46202850D1B5B1AEB113
:1012600094F8380001284AD0012084F838004FF063
:101270000008C4F83C80212084F83900FFF7AAFB5D
:10128000A6848146E68484F8388026E00120BDE803
:10129000F883E08C401EE084A0684B46B0F5805F88
:1012A0004FF000024FF080012046009703D000F07D
:1012B00025FAE8B90DE000F021FAC8B928882168BC
:1012C000C0F308004860206908B16D1C05E0AD1C42
:1012D00003E0216815F8010B4860E08C0028D8D1A4
:1012E0004B46002240212046009700F007FA08B143
:1012F0000320CCE7202084F839000020C7E7022033
:10130000C5E700007FB500241548009401940294BD
:101310001249039401604FF48031C0E90114046163
:10132000047680F820400F49C0E90A140125C56100
:10133000C46080F830404561FFF708FA08B1FFF754
:101340005DF9CDE90045694605480294FFF758F973
:10135000002801D0FFF752F97FBD000000200140B6
:101360002C0100200100000F70B586B014216846E2
:10137000FFF70AF81E480024016841F004010160EB
:10138000016801F004010591016841F080010160EC
:10139000016801F080010591016841F001010160DF
:1013A000016801F001010591016841F0020101604D
:1013B000016801F002010591016841F00801016036
:1013C00000680C4E00F0080042F20F050590002264
:1013D00029463046FFF7F8FA01200095CDE90104CF
:1013E000694630460394FFF713FA06B070BD00005B
:1013F00030380240000802400C4810B50A4901602C
:101400004FF4E1314160002181600C22C160C0E9EC
:1014100004128161C161FFF723FE002803D0BDE8FB
:101420001040FFF7EBB810BD00100140B8010020DC
:101430000C4810B50A4901604FF4E13141600021C8
:1014400081600C22C160C0E904128161C161FFF7B3
:1014500007FE002803D0BDE81040FFF7CFB810BD4D
:1014600000440040F80100200C4810B50A49016012
:101470004FF4E1314160002181600C22C160C0E97C
:1014800004128161C161FFF7EBFD002803D0BDE8C4
:101490001040FFF7B3B810BD0048004038020020EC
:1014A000704710B502F028F803F09AF9BDE8104033
:1014B00002F03AB830B593B030216846FEF764FFC9
:1014C00014210CA8FEF760FF1A480025016841F0BE
:1014D00080510160006800F080501190164801684A
:1014E00041F4804101600068022400F480401190C2
:1014F00001200090000401908001CDE906401920F0
:1015000008904FF4A870CDE9090404200B906846B8
:10151000FFF7E4FB0CA90F2081E831004FF4A05045
:101520000F90E002109005210CA8FFF7EBFA13B022
:1015300030BD0000403802400070004070B5194CCA
:101540002068194A10F00C01184804D0184D0429DD
:1015500003D0082903D002601BE0056019E011499F
:10156000091F0B68C3F380560B6803F03F0316B1E5
:10157000B5FBF3F201E0B2FBF3F20B680968C3F3C9
:1015800088135A43C1F30141491C4900B2FBF1F1F0
:1015900001602168074AC1F30311515C0268CA4027
:1015A000026070BD083802400024F4000C000020E6
:1015B00040787D01855000080548016841F47001BC
:1015C000016003494FF000608039086070470000F7
:1015D00088ED00E02DE9F041044600680169E26809
:1015E00021F44051114301612169A068E269084377
:1015F0006169114308432168CA6849F20C639A4340
:101600000243CA6020684169A26921F44071114314
:101610004161E069192764253226B0F5004F354A4B
:10162000354920684FF0000806D0884201D090422A
:1016300036D1FFF711FB35E0884201D0904202D14C
:10164000FFF70AFB01E0FFF7F7FA61684A18A0FB11
:10165000070148EB0803FEF74DFE0146B0FBF5F02D
:101660000201B1FBF5F06FF01803584301EB800065
:1016700006EBC000B0FBF5F000F0F80002EB400212
:10168000B1FBF5F0584301EB800006EBC000B0FB66
:10169000F5F000F00700216810448860BDE8F08193
:1016A000FFF7CAFA61688B0F8A00A0FB0701FEF7FB
:1016B00021FE0146B0FBF5F06FF01802504301EB3C
:1016C000800006EB0010B0FBF5F000F0F002B1FB7B
:1016D000F5F002EB0012B1FBF5F06FF01803584380
:1016E00001EB800006EB0010B0FBF5F000F00F00FE
:1016F000D1E7000000140140001001402DE9F04145
:10170000984617460E460446069D1DE0681C1BD0F1
:101710002DB1FFF75FF9A0EB0800A84214D92068AB
:10172000C16821F4D071C1602068416921F00101D4
:101730004161202084F8390084F83A00002084F8C0
:1017400038000320BDE8F0812068006836EA000018
:1017500004D00020B842D9D00020F3E70120F9E7F7
:10176000FEE70907090E002804DB00F1E02080F8FD
:101770000014704700F00F0000F1E02080F8141D05
:1017800070470000002807D00E4910F0FF0F04D06A
:1017900051FA80F00078401C704710F47F4F04D05D
:1017A000C0F30720085C0930704710F47F0F04D0A5
:1017B000C0F30740085C1130704701EB10600078FF
:1017C000193070472254000802E008C8121F08C1EF
:1017D000002AFAD170477047002001E001C1121FB2
:1017E000002AFBD17047000003480168814201D004
:1017F0000120704700207047F40000202DE9F04FD1
:1018000089B017468B4606004FF0000405D14FF40F
:101810009B72254925A001F06BFB3FB940F23712BE
:10182000214923A001F064FB00E0641C305D202806
:1018300003D0092801D05C45F7D34FF0FF3984B3BA
:101840001D4804F1060ADFF87480056811E00622DD
:101850001BA12868FEF7CBFD50B928682246314607
:10186000801DFEF7C4FD18B9296811F80A0028B1D7
:101870000835D8F800008542E9D313E06C6884B1DC
:1018800020216846FEF780FD6A465946304601F041
:1018900087F930B16946A0473860002009B0BDE83B
:1018A000F08FFFE74846F9E7F3510008636D6400E5
:1018B0007265747000000000100000201400002009
:1018C0005F5F636D645F00002DE9FC411F460446C5
:1018D000DDE90831DDE90A651C3040600060C4E9DB
:1018E0000A27C4E90C310A462321184601F0BFFF3C
:1018F000D4E90C014218D4E90A01164B121F01F079
:10190000DDFD6062202E04D39622134913A001F05E
:10191000EFFA84F83E6084F83D600020E5642064BE
:101920002565A06384F83C00C4F88800C4F88C00E6
:10193000009023460190124A194604F1540003F026
:1019400065F81048816809B1204688470020BDE845
:10195000FC810000E54200083D5600087072696F86
:1019600072697479203C2052545F54485245414476
:101970005F5052494F524954595F4D415800000041
:10198000C1460008FC00002010B5029C24F00104B0
:101990004474C0E909120021C0E90B311C304060D9
:1019A000006010BDF0E907124A60D0E90012116032
:1019B000406000607047000010B51BA001F0F8FD0A
:1019C0001C4C21781CA001F0F3FD2078C00702D048
:1019D0001FA001F0EDFD2078800702D51FA001F0C7
:1019E000E7FD2078400702D51FA001F0E1FD207837
:1019F000000702D520A001F0DBFD2078C00602D54B
:101A000020A001F0D5FD2078000607D509480F3049
:101A10000168BDE810401DA001F0CABDBDE810403E
:101A20001EA001F0C5BD0000627573206661756C73
:101A3000743A0A0029ED00E05343425F4346535293
:101A40005F424653523A3078253032582000000029
:101A50004942555345525220000000005052454320
:101A60004953455252200000494D50524543495375
:101A70004552522000000000554E53544B455252DF
:101A80002000000053544B45525220005343422D36
:101A90003E424641523A253038580A000A000000BA
:101AA00010B500F0E3FB002010BD10B500F0B2FD52
:101AB000002010BD104810B5416991F82910890720
:101AC00003D40E490020087013E0016921B180227F
:101AD0000A48FEF770FC0CE001F060F808B108A1BC
:101AE00000E009A10548FEF779FC09A10348FEF7CB
:101AF00056FC024810BD00001000002078020020B3
:101B00006D7368200000000066696E736820000035
:101B10003E00000070B5084C0546606920B9A3225C
:101B2000064907A001F0E4F9606910F8291F65F380
:101B30004101017070BD000010000020B35000088A
:101B40007368656C6C20213D2052545F4E554C4C9F
:101B500000000000014AC2E90001704710000020A7
:101B60007CB516491648FFF7F5FF8021012001F0EA
:101B7000F5F9144C6061D0B10A211520CDE90001BE
:101B80004FF400730022104910A002F086FB0546B6
:101B900000231A460FA1606902F01EF90120FFF729
:101BA000B9FF15B1284602F0E5FC00207CBD0BA072
:101BB00001F0FEFC4FF0FF307CBD0000D85900085A
:101BC0002859000810000020F51B00087473686590
:101BD0006C6C000073687278000000006E6F206DFE
:101BE000656D6F727920666F72207368656C6C0A20
:101BF00000000000984D686910F8291F41F00101AC
:101C00000170FFF757FF01F0D3FC002601F010FB35
:101C10000400FBD41B2C07D0686990F82810012918
:101C200007D002290ED017E06969012081F8280049
:101C3000ECE75B2C02D080F828600DE0022180F8F0
:101C40002810E3E780F82860412CDFD0422CDDD05B
:101C5000442C38D0432C43D0002CD7D0FF2CD5D0E7
:101C6000092C4ED07F2C75D0082C73D00D2C70D041
:101C70000A2CFCD0B0F87A10502901D3A0F87A6071
:101C8000B0F87C30B0F87A108B427DD2CA1A00F1DD
:101C90002A012B301944184401F0D0FD6869B0F8CE
:101CA0007C102A300C54686990F82910C90706D0B6
:101CB000B0F87C102A30014468A001F079FC686912
:101CC000B0F87C40A5E0B0F87C0000289ED064A06D
:101CD00001F06EFC686930F87C1F491E018095E7B1
:101CE000B0F87C10B0F87A2091428FD22A30095C8B
:101CF0005CA001F05DFC696931F87C0F401C088034
:101D000084E7002403E056A001F052FC641C6869DB
:101D1000B0F87C00A042F6DC6C6953A02A3401F0D4
:101D200047FC00F03BFF012802D1204600F078FE7E
:101D3000FFF7C0FE014622464CA001F039FC68695D
:101D40002A30FEF744FB696921F87A0F48805DE785
:101D500000E03DE0B0F87C20002AC0D0B0F87A1056
:101D6000521E491E89B293B2A0F87A10A0F87C30B6
:101D7000994224D9CA1A00F12B012A301944184477
:101D800001F05CFD686900E049E0B0F87A102A30A3
:101D90000E546869B0F87C102A30014435A001F077
:101DA00007FC6869B0F87C4003E02DA001F000FC5E
:101DB000641C6869B0F87A00A04290DBF5E72FA0B8
:101DC00001F0F6FB6869B0F87A102A300E541DE76E
:101DD00000F0E4FE01280DD1686990F82900C007E1
:101DE00002D021A001F0E4FB6869B0F87A102A3033
:101DF00000F06CFEFFF75EFE01F0DAFB686950212F
:101E00002A30FEF7C1FA686922E015A001F0D0FB84
:101E1000641C6869B0F87A00A042F6DC0AE02A3057
:101E20000C54686990F82900C00703D021460DA022
:101E300001F0BEFB6869B0F87A10491C89B2A0F8BD
:101E40007A10B0F87C20521CA0F87C205029BED318
:101E500020F87A6F4680D9E6100000202573000034
:101E600008000000256300000A00000025732573A8
:101E7000000000000825732020080000082008004A
:101E800010B5124C2068800702D511A001F090FB1C
:101E90002068400011D50D48C01E007808B1FFF73A
:101EA0008BFD0A48001F007808B100F04DFD07487F
:101EB000801E008808B103F059F82068002804DA71
:101EC000BDE8104008A001F073BB10BD2CED00E090
:101ED0006661696C656420766563746F72206665FF
:101EE0007463680A000000006465627567206576A7
:101EF000656E740A0000000010B502A001F058FBE6
:101F0000002010BD48656C6C6F2052542D546872CF
:101F1000656164210A00000070B50BA001F048FB68
:101F20000E480F4D04680AE002220EA12068FEF759
:101F30005EFA18B10CA0216801F03AFB0834286859
:101F40008442F1D3002070BD2D2D46756E637469F7
:101F50006F6E204C6973743A0A0000001000002074
:101F6000140000205F5F000025730A002DE9F04196
:101F700094B000262BA408230BAA042105A800F086
:101F80008DF8102080460146224628A001F010FB63
:101F9000404600F06DFE2EA001F00AFB05A9304678
:101FA00000F08EF80646002533E00BA850F82540D7
:101FB000143CFEF705F9217C9DF81C2021F08001DE
:101FC000914202D0FEF700F922E0FEF7FDF804F19D
:101FD0001C00E1690746814212D0384601F014FB2B
:101FE000616ACDE9001023461022414620A001F08D
:101FF000DFFA384602F08EFF14A001F0D9FA07E0AC
:10200000606A00902346102241461FA001F0D0FADA
:102010006D1C0998A842C8DC002EBFD114B0002066
:10202000BDE8F0816576656E74000000252D2A2ECE
:1020300073202020202020736574202020207375B9
:102040007370656E64207468726561640A000000D4
:1020500020202D2D2D2D2D2D2D2D2D2D202D2D2DD7
:102060002D2D2D2D2D2D2D2D2D2D2D0A0000000077
:10207000252D2A2E2A7320203078253038782025E7
:102080003033643A00000000252D2A2E2A732020C8
:1020900030782530387820300A0000002DE9F041F2
:1020A00004461E4617460D46084601F0CDFC001DAD
:1020B0002060257200206760C4E90360BDE8F081FC
:1020C0002DE9F0410D4600212961E96891B1297A95
:1020D00081B12E6888B10446FEF772F80146A4F17A
:1020E00014002A7A007C20F08000904209D0084633
:1020F000FEF76AF80020BDE8F0813446FEF760F88C
:102100000146686800272468B44201D1002404E035
:1021100010C0EA687F1CBA42F5D10846FEF754F8B1
:1021200020462F61E7E700002DE9F04196B0002638
:102130002FA408230CAA052106A8FFF7AFFF102043
:102140008046014622462CA001F032FA404600F0BB
:102150008FFD32A001F02CFA06A93046FFF7B0FF40
:10216000064600253BE00CA850F82540143CFEF73D
:1021700027F80146207C9DF8202020F08000904226
:10218000084602D0FEF720F828E0FEF71DF8E069C7
:1021900004F11C07B842384613D001F035FA228DFD
:1021A000618D0091CDE9012023461022414622A0F5
:1021B00001F0FEF9384602F0ADFE25A001F0F8F975
:1021C0000CE001F021FA218D628DCDE90021029011
:1021D0002346102241461FA001F0EAF96D1C0A981F
:1021E000A842C0DC002EB7D116B00020BDE8F081B7
:1021F0006D61696C626F7800252D2A2E7320656EE3
:102200007472792073697A652073757370656E6472
:10221000207468726561640A00000000202D2D2D75
:102220002D20202D2D2D2D202D2D2D2D2D2D2D2D05
:102230002D2D2D2D2D2D0A00252D2A2E2A732025FA
:102240003034642020253034642025643A000000B6
:102250000A000000252D2A2E2A7320253034642000
:1022600020253034642025640A00000010B5074C96
:1022700007A0616901F09CF90AA0A16901F098F931
:10228000E169BDE810400CA001F092B940000020C7
:10229000746F74616C206D656D6F72793A2025647E
:1022A0000A00000075736564206D656D6F7279209A
:1022B0003A2025640A0000006D6178696D756D2013
:1022C000616C6C6F6361746564206D656D6F7279AC
:1022D0003A2025640A0000002DE9F04194B0002660
:1022E0002CA408230BAA062105A8FFF7D7FE10206F
:1022F0008046014622462AA001F05AF9404600F0E5
:10230000B7FC2EA001F054F905A93046FFF7D8FE1E
:102310000646002535E00BA850F82540143CFDF793
:102320004FFF217C9DF81C2021F08001914202D0BA
:10233000FDF74AFF24E0FDF747FFE06904F11C07C1
:10234000B842384611D001F05FF9A18DCDE90010F7
:102350002346102241461FA001F02AF9384602F018
:10236000D9FD21A001F024F90AE001F04DF9A18D79
:10237000CDE900102346102241461CA001F018F9B7
:102380006D1C0998A842C6DC002EBDD114B00020F7
:10239000BDE8F0816D7367717565756500000000BB
:1023A000252D2A2E7320656E7472792073757370D3
:1023B000656E64207468726561640A00202D2D2D9D
:1023C0002D20202D2D2D2D2D2D2D2D2D2D2D2D2D57
:1023D0002D0A0000252D2A2E2A7320253034642052
:1023E0002025643A000000000A000000252D2A2E56
:1023F0002A732025303464202025640A0000000060
:10240000F0B595B0002623A408230DAA032107A840
:10241000FFF744FE10272246394620A001F0C8F8F5
:10242000384600F025FC26A001F0C2F807A9304686
:10243000FFF746FE0646002524E00DA850F825408B
:10244000143CFDF7BDFE217C9DF8242021F0800185
:10245000914202D0FDF7B8FE13E0FDF7B5FE04F19E
:102460001C0001F0D1F894F82710A26A1023CDE9DE
:102470000032CDE9021023461022394618A001F09F
:1024800097F86D1C0B98A842D7DC002ECED115B062
:102490000020F0BD6D75746578000000252D2A2E92
:1024A000732020206F776E65722020686F6C642027
:1024B00073757370656E64207468726561640A0078
:1024C000202D2D2D2D2D2D2D2D202D2D2D2D202D63
:1024D0002D2D2D2D2D2D2D2D2D2D2D2D2D0A0000A9
:1024E000252D2A2E2A7320252D382E2A73202530BB
:1024F00034642025640A00002DE9F04194B00026E0
:102500002CA408230BAA022105A8FFF7C7FD102061
:102510008046014622462AA001F04AF8404600F0D3
:10252000A7FB2EA001F044F805A93046FFF7C8FD2F
:102530000646002535E00BA850F82540143CFDF771
:102540003FFE217C9DF81C2021F08001914202D0A9
:10255000FDF73AFE24E0FDF737FEE06904F11C07C1
:10256000B842384611D001F04FF8A18CCDE90010E7
:102570002346102241461FA001F01AF8384602F007
:10258000C9FC15A001F014F80AE001F03DF8A18C97
:10259000CDE900102346102241461AA001F008F8A8
:1025A0006D1C0998A842C6DC002EBDD114B00020D5
:1025B000BDE8F08173656D6170686F726500000041
:1025C000252D2A2E73207620202073757370656E5A
:1025D00064207468726561640A000000202D2D2D4E
:1025E000202D2D2D2D2D2D2D2D2D2D2D2D2D2D0A4B
:1025F00000000000252D2A2E2A7320253033642068
:1026000025643A00252D2A2E2A7320253033642094
:1026100025640A002DE9F041BAB000263CA4082345
:1026200032AA01212CA8FFF739FD1020804601466F
:102630002246394800F0BCFF404600F019FB37A0A5
:1026400000F0B6FF2CA93046FFF73AFD06460025FC
:1026500054E032A850F82540143CFDF7B1FD074680
:10266000207C9DF8B81020F08000884203D03846C6
:10267000FDF7AAFD41E09022214604A8FDF76BFE7C
:102680003846FDF7A1FD94F83D0000902346102246
:10269000414632A000F08CFF94F83C0000F00F009F
:1026A000012807D0022807D040B1042808D0032809
:1026B00008D00AE02CA006E02EA004E030A002E042
:1026C00032A000E034A000F073FF206B014600E070
:1026D000401C0278232AFBD0626B401A101A642334
:1026E0005843B0FBF2F3A76B206DCDE90007606A99
:1026F000081A81182BA000F05BFF6D1C3098A842CF
:10270000A7DC002E9ED13AB00020BDE8F081000089
:10271000746872656164000054570008202D2D2DE7
:1027200020202D2D2D2D2D2D2D202D2D2D2D2D2D00
:102730002D2D2D2D202D2D2D2D2D2D2D2D2D2D20E3
:10274000202D2D2D2D2D2D20202D2D2D2D2D2D2DE0
:102750002D2D2D202D2D2D0A00000000252D2A2E97
:102760002A7320253364200020726561647920205B
:10277000000000002073757370656E640000000037
:1027800020696E69742020200000000020636C6FB7
:1027900073652020000000002072756E6E696E6700
:1027A000000000002030782530387820307825303F
:1027B0003878202020202530326425252020203024
:1027C000782530387820253033640A00F0B593B08E
:1027D000002626A408230BAA0A2104A8FFF75EFC02
:1027E00010272246394623A000F0E2FE384600F0CA
:1027F0003FFA2AA000F0DCFE04A93046FFF760FC97
:102800000646002524E00BA850F82540143CFDF7AF
:10281000D7FC217C9DF8182021F08001914202D044
:10282000FDF7D2FC13E0FDF7CFFCD4E90B01CDE9B5
:10283000000123461022394621A000F0B9FE607C39
:10284000C00701D024A000E026A000F0B1FE6D1C5E
:102850000898A842D7DC002ECED101F0BBFF01467C
:1028600024A000F0A5FE13B00020F0BD74696D65D2
:1028700072000000252D2A2E732020706572696F6A
:1028800064696320202074696D656F757420202051
:1028900020202020666C61670A000000202D2D2D6D
:1028A0002D2D2D2D2D2D2D202D2D2D2D2D2D2D2D65
:1028B0002D2D202D2D2D2D2D2D2D2D2D2D2D0A00A5
:1028C000252D2A2E2A73203078253038782030782C
:1028D0002530387820000000616374697661746582
:1028E000640A000064656163746976617465640AF2
:1028F0000000000063757272656E74207469636B0A
:102900003A3078253038780A00000000FEF768F881
:10291000FEF7D0FDFEF728FDFEF7F4FCFEF76CFD98
:10292000FEF786FDFEF7A0FD002211462720FEF7E8
:10293000B7F82720FEF7A6F8FEE710B500F02AFB4F
:10294000BDE81040FFF7E2BF10B518A000F030FE60
:102950001B4C21781BA000F02BFE2078C00702D072
:102960001EA000F025FE2078800702D51EA000F0F2
:102970001FFE2078000702D51EA000F019FE207867
:10298000C00602D51EA000F013FE2078000607D571
:102990000B480C300168BDE810401CA000F008BED8
:1029A000BDE810401D4800F003BE00006D656D20BD
:1029B0006D616E616765206661756C743A0A00002E
:1029C00028ED00E05343425F434653525F4D465368
:1029D000523A3078253032582000000049414343B4
:1029E00056494F4C200000004441434356494F4C48
:1029F000200000004D554E53544B455252200000CC
:102A00004D53544B45525220000000005343422D79
:102A10003E4D4D41523A253038580A00DC4F0008EF
:102A20002DE9F0478046002500782C4618B1224851
:102A3000224F066831E0BDE8F0470021084600F06B
:102A400077B806221EA13068FDF7D1FC20BB3068A4
:102A500000F106094046FDF7BAFC024649464046E9
:102A6000FDF7C5FCC0B925B94C464846FDF7AFFC9B
:102A700005464946204601E0401C491C02781AB12F
:102A80000B780BB19A42F7D0001BA84200DA05463A
:102A900049460DA000F08CFD083638688642D0D338
:102AA000002C06D02A4621464046BDE8F04701F0FA
:102AB00027BBBDE8F08700001000002014000020B4
:102AC0005F5F636D645F000025730A0038B50446DC
:102AD00001E0491E641C20782028FAD00928F8D08B
:102AE00031B16A462046FEF789FE18B1204604E05F
:102AF000002038BD009838BD401C0178202901D045
:102B00000029F9D100210170214603A000F050FDF9
:102B10004FF0FF3038BD000025733A20636F6D6DB4
:102B2000616E64206E6F7420666F756E642E0A008D
:102B300070B50DA000F03CFD1248134D04680BE089
:102B4000062212A12068FDF752FC20B9216811A0CD
:102B5000891D00F02DFD083428688442F0D30EA0B2
:102B600000F026FD002070BD52542D54687265613E
:102B700064207368656C6C20636F6D6D616E647347
:102B80003A0A000010000020140000205F5F636D0F
:102B9000645F0000257320000A00000001207047D8
:102BA00070B5002315461C461A464BE000F8012B71
:102BB0005B1C0678202E01D0092E01D18B42F5D363
:102BC000082C11D321A000F0F3FC002606E000BF82
:102BD00055F8261025A000F0EBFC761CA642F7D392
:102BE00021A000F0E5FC2FE08B422DD2F6B2222E80
:102BF00003D045F82400641C1BE0401C45F8240069
:102C00005B1C641C08E05C2E04D14678222E01D1A6
:102C1000401C5B1C401C5B1C0678222E01D08B42A2
:102C2000F1D38B4210D200F8012B5B1C0AE0401C50
:102C30005B1C0678202E03D0092E01D08B42F6D3E0
:102C40008B4201D28B42B4D3204670BD546F6F20AB
:102C50006D616E7920617267732021205765206F46
:102C60006E6C79205573653A0A00000025732000C8
:102C700010B5044602E003A000F09AFC641EFAD2EC
:102C800010BD00002D00000070B5204D0446A8685E
:102C9000844204D294221E491EA000F029F9E8685B
:102CA000844204D395221A4922A000F021F96088B9
:102CB00020B1962216492AA000F01AF96168A86886
:102CC00001448C420FD04A886AB9EA6891420AD01E
:102CD0002A698A4200D12C614A6862604B6800F11F
:102CE0000801221A5A50A1680144A1420CD04A8816
:102CF000002A09D12A69A24200D1296162684A608A
:102D0000091A62680830115070BD000040000020B0
:102D1000555500082872745F75696E74385F7420A9
:102D20002A296D656D203E3D20686561705F707475
:102D3000720000002872745F75696E74385F7420C9
:102D40002A296D656D203C202872745F75696E7448
:102D5000385F74202A29686561705F656E640000C1
:102D60006D656D2D3E75736564203D3D203000001E
:102D70002DE9F04F85B09946DDE90EA5109CAB46D4
:102D8000630602D5DFF814C103E0DFF810C1ACF12F
:102D9000110CE30601D524F00104E30701D0302330
:102DA00000E0202300260493A3070BD5002A02DAB3
:102DB0002D26524206E0630701D52B2602E02307A9
:102DC00000D520260023EE4622B930228DF80020BF
:102DD00001230CE0B9F10A0F14D002F00F08120918
:102DE0001CF808800EF803805B1C002AF2D1AB426D
:102DF00000DD1D46AAEB050214F0110F4FF020076D
:102E000008D015E00A27B2FBF7F807FB1828B2FB39
:102E1000F7F2E5E73EB1002A05DD521E03E08842E5
:102E200000D20770401CB2F1000CA2F10102F6DCE6
:102E300026B1884200D20670401C521EE40605D519
:102E400008E0884201D2049C0470401C141EA2F1C8
:102E50000102F6DC30242E466D1E9E420ADD8842B9
:102E600000D20470401CF6E7884201D2E55C057090
:102E7000401C00E074461D1EA3F1010307DDBBF1F9
:102E8000000FF1D103E0884200D20770401C131EEE
:102E9000A2F10102F7DC05B0BDE8F08F3355000860
:102EA0001CB514210A20CDE900014FF480630022F3
:102EB000074908A001F0F1F9040004D1C322074931
:102EC00007A000F015F82046BDE81C4001F052BBF9
:102ED0003B2900086D61696E000000000152000886
:102EE00074696420213D2052545F4E554C4C0000C3
:102EF00038B500238DF80030094B5C6824B101B06F
:102F0000A446BDE83040604713460A46014605A086
:102F100000F04EFB9DF800000028FBD038BD0000FB
:102F20003800002028257329206173736572746945
:102F30006F6E206661696C65642061742066756ED1
:102F40006374696F6E3A25732C206C696E65206E10
:102F5000756D6265723A2564200A000070B54843B9
:102F6000044600F06DFB050003D02246002100F06E
:102F70007EFC284670BD000070B5044C044D02E094
:102F800020688047241DAC42FAD370BD1859000850
:102F90001C59000870B5044C044D02E020688047BD
:102FA000241DAC42FAD370BD1C59000824590008F6
:102FB00010B5FDF705F9044A5188491C5180BDE858
:102FC0001040FDF701B90000E400002010B5FDF746
:102FD000F7F80B4C6188491E09B2618000290ADCB0
:102FE00000216180FDF7F0F86068002807D0BDE897
:102FF000104000F04DBEBDE81040FDF7E5B810BD33
:10300000E400002070B504006ED0FDF7D9F8054645
:1030100000F084FA48B1354935A000F0C9FA4FF400
:10302000077232493CA0FFF763FF2846FDF7CCF852
:10303000A00705D040F21E222C4938A0FFF758FF08
:10304000434DA868844202D3E868844205D340F225
:103050001F2226493F48FFF74BFF696809B1204608
:103060008847A86884423FD3E86884423CD24FF046
:10307000FF3139480C3C00F025FF60884FF4F556CD
:1030800010B12088B04219D034A000F091FA238802
:103090006288214638A000F08BFA608828B940F297
:1030A0003E22124940A0FFF723FF2088B04205D0FE
:1030B00040F23F220D493FA0FFF71AFF0020608039
:1030C00026802869844200D22C61A9686068611A50
:1030D000401AA969081AA8612046FFF7D5FDBDE886
:1030E00070401D4800F0AEBE70BD00004D55000898
:1030F00046756E6374696F6E5B25735D20736861DE
:103100006C6C206E6F742062652075736564206935
:103110006E204953520A000030000000282828720F
:10312000745F75696E7433325F7429726D656D29D1
:103130002026202852545F414C49474E5F53495A3C
:1031400045202D20312929203D3D20300000000060
:10315000400000202C5800081C150020746F2066C9
:10316000726565206120626164206461746120621F
:103170006C6F636B3A0A00006D656D3A20307825FC
:103180003038782C207573656420666C61673A204E
:1031900025642C206D6167696320636F64653A2044
:1031A0003078253034780A006D656D2D3E75736575
:1031B000640000006D656D2D3E6D61676963203DA3
:1031C0003D20484541505F4D4147494300000000C4
:1031D00000487047FC02002000487047FC120020A5
:1031E00010B5FEF7ABF910484FF47A710068B0FBE8
:1031F000F1F0401EB0F1807F09D24FF0E0210B4A80
:103200004861FF2010700020886107200861FFF7E7
:10321000B3FEFFF7E1FF0446FFF7DAFF2146BDE802
:10322000104000F081BF00000C00002023ED00E002
:1032300038B500208DF80000441E03E02146064802
:1032400000F040FE044869460C3800F0B9FC012843
:10325000F4D19DF8000038BD90010020F8B5064675
:103260000D200F498DF80000002481F838403046C9
:1032700000F03EFF05460FE0305D0A2805D101232E
:103280001A4669460648FDF7DFFF012331191A4641
:103290000348FDF7D9FF641CAC42EDD3F8BD000034
:1032A000B801002070B531490546283009682C1D49
:1032B00011B18847002857D02DA0216C00F078F973
:1032C0002FA0616A00F074F931A0A16A00F070F9D2
:1032D00033A0E16A00F06CF935A0216B00F068F9C9
:1032E00037A0616800F064F939A0A16800F060F9C6
:1032F0003BA0E16800F05CF93DA0216900F058F9BD
:103300003FA0616900F054F941A0A16900F050F9B3
:1033100043A0E16900F04CF945A0216A00F048F9AA
:1033200047A0616B00F044F949A0A16B00F040F99F
:103330004BA0E16B00F03CF92878400708D501F07C
:1033400013F901464AA000F033F9FFF763F902E0F0
:103350004FA000F02DF92878C00602D453A000F049
:1033600027F9FEF78DFDFEE770BD00001C0100206F
:103370007073723A203078253038780A00000000E7
:103380007230303A203078253038780A000000005A
:103390007230313A203078253038780A0000000049
:1033A0007230323A203078253038780A0000000038
:1033B0007230333A203078253038780A0000000027
:1033C0007230343A203078253038780A0000000016
:1033D0007230353A203078253038780A0000000005
:1033E0007230363A203078253038780A00000000F4
:1033F0007230373A203078253038780A00000000E3
:103400007230383A203078253038780A00000000D1
:103410007230393A203078253038780A00000000C0
:103420007231303A203078253038780A00000000B8
:103430007231313A203078253038780A00000000A7
:103440007231323A203078253038780A0000000096
:10345000206C723A203078253038780A000000005D
:103460002070633A203078253038780A0000000058
:1034700068617264206661756C74206F6E20746878
:10348000726561643A2025730D0A0D0A0000000080
:1034900068617264206661756C74206F6E2068616B
:1034A0006E646C65720D0A0D0A00000046505520CE
:1034B000616374697665210D0A00000070B50446E9
:1034C000121D22F0070000220A4D443840F8225015
:1034D000521C112AFAD3416200218162C16200F1BB
:1034E0003402016382E81A004FF0807303640160C4
:1034F00070BD0000EFBEADDE10B5FCF761FE064901
:1035000004460878401C0870486800B1804720468F
:10351000BDE81040FCF758BE2C00002001480078A0
:10352000704700002C00002010B5FCF749FE06494A
:1035300004460878401E0870886800B1804720461D
:10354000BDE81040FCF740BE2C00002010B500681C
:103550001C3800F0C3FF002010BD00002DE9F04131
:10356000064614460D46084601F062F805F11C07B0
:10357000B4B1012C18D134680EE000BF95F83D10AD
:1035800094F82120A4F11C00914204D239461C3049
:1035900000F033F802E02468B442EFD1B44203D122
:1035A0003946304600F029F80020BDE8F0810000DF
:1035B0000FB47F2110B503AB0448029A01F04EFB13
:1035C0000248FFF74BFE10BC5DF814FB9C14002072
:1035D0000268516002680A600160486070470268D2
:1035E000516002680A60016048607047026851607B
:1035F00002680A6001604860704742681160426872
:103600004A604160086070470246002100E0491CA2
:1036100000689042FBD108467047D0E900124A602A
:10362000D0E900121160406000607047D0E90012DC
:103630004A60D0E9001211604060006070470000ED
:103640002DE9F047040019D0FCF7BAFD0546FFF755
:1036500065FF48B1534954A0FFF7AAFF40F20B128F
:1036600050495BA0FFF744FC2846FCF7ADFDE41C85
:1036700024F00306574C6069864202D90020BDE859
:10368000F0870C2E00D20C264FF0FF31524800F08C
:1036900019FCA1682069D4F814C0421AACEB0603E7
:1036A00079E08D186F88002F74D16F68BF1A0C3FB6
:1036B000B7426FD36B6806F118079B1A0C3B4FF0AB
:1036C00001094FF4F55ABB422BD397190C37CB198C
:1036D0004FF00008A3F800A0A3F80280D5F80480FA
:1036E000C3E901826F60A5F802905A680CF10C0CD6
:1036F000624502D001F10803D750A26932440C326E
:10370000A261E369934200D2E261A5F800A085427C
:103710001AD1E268438863B190420AD040680844F5
:10372000F8E7A5F802906A686B1AD21AA3691A44DE
:10373000E6E72061904207D0408828B140F2751238
:10374000184926A0FFF7D4FB234800F07BFBA819FB
:10375000E1680C30884205D940F2791211492948B4
:10376000FFF7C6FBA8070BD04FF4BD720D492648E2
:10377000FFF7BEFB40F27B120A4924A0FFF7B8FB1B
:1037800022681AB1314605F10C00904705F10C0092
:1037900075E7FFE76A68934283D80F4800F052FB51
:1037A0006CE700007455000846756E6374696F6EAF
:1037B0005B25735D207368616C6C206E6F74206292
:1037C00065207573656420696E204953520A0000B4
:1037D00030000000400000201C15002028286C66E6
:1037E000726565203D3D20686561705F656E642986
:1037F000207C7C2028216C667265652D3E75736582
:103800006429290088580008E057000828282872F1
:10381000745F75696E7433325F74296D656D29202C
:1038200026202852545F414C49474E5F53495A4520
:10383000202D20312929203D3D20300010B50346A0
:10384000994211D28C189C420ED9811804E000BF15
:1038500014F8013D01F8013D521EF9D210BD00BF20
:1038600011F8014B03F8014B521EF9D210BD10B5EF
:103870000346C9B201E003F8011B521EFBD210BD82
:103880002DE9F0410F460646FCF79AFC0446FFF787
:1038900045FE48B11E491FA0FFF78AFE4FF4AC72E7
:1038A0001B4926A0FFF724FB2046FCF78DFC304681
:1038B00000F0CAF8050005D14FF4AE72144920A0FB
:1038C000FFF716FBE868FFF7BBFE04001ED00021DF
:1038D000EA68FFF7CCFF2674002060741022394696
:1038E000204600F00DFC1C48016809B120468847BD
:1038F000FCF766FC064604F11401281DFFF768FE7C
:103900003046FCF761FC2046BDE8F0810020FBE773
:10391000A955000846756E6374696F6E5B25735D0B
:10392000207368616C6C206E6F7420626520757303
:10393000656420696E204953520A0000300000007F
:10394000696E666F726D6174696F6E20213D2052E1
:10395000545F4E554C4C00006000002070B50400D0
:1039600005D14FF4CB72114911A0FFF7C1FA207CA9
:10397000000605D540F297120C4912A0FFF7B8FADD
:103980001B48416809B12046884700202074FCF795
:1039900017FC054604F11400FFF73FFE2846FCF72C
:1039A00013FC2046BDE87040FFF72CBBBC55000857
:1039B0006F626A65637420213D2052545F4E554CFE
:1039C0004C00000021286F626A6563742D3E747993
:1039D000706520262052545F4F626A6563745F43AE
:1039E0006C6173735F537461746963290000000034
:1039F0006000002070B5040005D140F235120B497B
:103A00000BA0FFF775FA0F48416809B120468847B7
:103A100000202074FCF7D4FB054604F11400FFF7E6
:103A2000FCFD2846BDE87040FCF7CEBB9855000869
:103A30006F626A65637420213D2052545F4E554C7D
:103A40004C00000060000020074A002102EB011337
:103A50001B78834202D102EB01107047491C0729F1
:103A6000F4DB0020704700007400002010B5040053
:103A700005D140F2CB12044904A0FFF739FA207CAB
:103A800020F0800010BD0000E75500086F626A65F5
:103A9000637420213D2052545F4E554C4C00000071
:103AA0002DE9F0470646924688460846FFF7CCFFC8
:103AB000040004D1FB22194919A0FFF719FAFFF7F6
:103AC00077FA40F20919271D656809E0A5F114008D
:103AD000B04204D14A46114917A0FFF709FA2D68F0
:103AE000BD42F3D1FFF772FA48F080003074102223
:103AF0005146304600F004FB1348016809B13046D6
:103B00008847FCF75DFB054606F11401201DFFF711
:103B10005FFD2846BDE8F047FCF756BB8955000815
:103B2000696E666F726D6174696F6E20213D2052FF
:103B3000545F4E554C4C00006F626A20213D206F4F
:103B4000626A6563740000006000002010B5040024
:103B500005D14FF4DC72054905A0FFF7C9F9207CB7
:103B6000000601D5012010BD002010BDCD55000874
:103B70006F626A65637420213D2052545F4E554C3C
:103B80004C00000010B58288C1885408B4EB510F76
:103B900008D1D207B2EBC17F01D1002010BDB0F92E
:103BA000080010BD4B08B3EB520F02D9A3EB520033
:103BB00010BDB0F90800A4EB5101401A10BD00007F
:103BC00070B50D46040004D18622124912A0FFF7F9
:103BD0008FF92046FFF7D6FF002819D0A18820686A
:103BE00000EB510000782870B4F90810A088491E35
:103BF000B1EB500F05D1C14361F3000000F00100AB
:103C000004E0012101EB500161F34F00A08001208D
:103C100070BD00006F500008726220213D20525498
:103C20005F4E554C4C00000070B515460E46040022
:103C300004D15B220E490FA0FFF75AF9002D04DCD6
:103C40005C220B490FA0FFF753F92079002100F007
:103C5000010061F30000A080A07900F0010061F391
:103C60000000E08025F003002660208170BD000088
:103C700046500008726220213D2052545F4E554C40
:103C80004C00000073697A65203E2030000000007F
:103C90002DE9F041FCF794FA134C07466088D8B937
:103CA000A068FDF76FFD1149401E666851F830505D
:103CB0001C3DB54210D020706560E26812B1294603
:103CC000304690470A48007805F12401002806F1A3
:103CD000240006D0FCF77BFA3846BDE8F041FCF73B
:103CE00073BAFCF774FAF7E7E400002044150020EB
:103CF0002C00002010B5040005D14FF49172124938
:103D000012A0FFF7F5F8FCF75BFA024694F83C00C6
:103D1000134920F00F00401C84F83C0094F83D004B
:103D200001EBC00104F11C004B6818604B68236272
:103D300048600C48E161216C836819438160BDE8EB
:103D400010401046FCF740BA0956000874687265C6
:103D5000616420213D2052545F4E554C4C000000C0
:103D600044150020E400002010B5040005D14FF4F4
:103D7000A872114911A0FFF7BBF8FCF721FA04F172
:103D80001C01D1E900235360D1E900231A602162AC
:103D9000E16194F83D200E4951F8323001EBC20147
:103DA0008B4204D10B49236C8A689A438A60BDE830
:103DB0001040FCF709BA00002356000874687265C9
:103DC000616420213D2052545F4E554C4C00000050
:103DD00044150020E40000202DE9F0411E46154660
:103DE0000F46040004D1CA220C490DA0FFF780F849
:103DF000B5F5803F04D3CB2208490DA0FFF778F832
:103E00003A4602212046FFF74BFE04F11C002062D7
:103E1000E061A58466740020BDE8F0812B520008A3
:103E200073656D20213D2052545F4E554C4C00006F
:103E300076616C7565203C203078313030303055FB
:103E40000000000070B5040005D140F2B51216491B
:103E500016A0FFF74DF82046FFF708FE022805D010
:103E60004FF4DB7210491548FFF742F81448016817
:103E700009B120468847FCF7A3F90546E16904F13A
:103E80001C00814207D0FFF761FB2846FCF79CF934
:103E9000FFF7FEFE05E0A08C401CA0842846FCF73E
:103EA00093F9002070BD00006D52000873656D200D
:103EB000213D2052545F4E554C4C0000985700084D
:103EC000700000202DE9F341040005D14FF4A472E5
:103ED0003A493BA0FFF70CF82046FFF7C7FD022840
:103EE00005D040F2491235493948FFF701F8394801
:103EF000016809B120468847FCF762F90646A08CA4
:103F000028B1401EA0843046FCF75EF94FE00198CE
:103F100040B1FCF755F9804600F026FB40F26915E8
:103F200038B10FE03046FCF74FF96FF00100BDE803
:103F3000FC81224928A0FFF73BFB2A461F4934A0F9
:103F4000FEF7D6FFFCF73CF90746FFF7E7FA40B16A
:103F50001A4930A0FFF72CFB2A4618492CA0FEF77F
:103F6000C7FF3846FCF730F94046FCF72DF900F062
:103F7000FBFA05460020A863627C294604F11C0078
:103F8000FFF7ECFA0198002809DD05F1540001AAB9
:103F90000021074600F078FC384600F05FFD30460F
:103FA000FCF712F9FFF774FEA86B0028BFD1234875
:103FB000016809B1204688470020B8E7615200082F
:103FC00073656D20213D2052545F4E554C4C0000CE
:103FD000985700086800002046756E6374696F6E1C
:103FE0005B25735D207368616C6C206E6F7420625A
:103FF000652075736564206265666F726520736302
:10400000686564756C65722073746172740A00006F
:104010003000000046756E6374696F6E5B25735DDA
:10402000207368616C6C206E6F74206265207573FC
:10403000656420696E204953520A00006C0000201C
:1040400008B509A0FFF7B4FA0AA0FFF7B1FA12A069
:10405000032300900122194612A0FFF7A9FABDE838
:10406000084018A0FFF7A4BA0A205C207C202F0A81
:10407000000000002D205254202D2020202020540C
:104080006872656164204F7065726174696E672043
:1040900053797374656D0A0053657020313920328D
:1040A00030323000202F207C205C20202020202552
:1040B000642E25642E2564206275696C6420257346
:1040C0000A0000002032303036202D2032303139C5
:1040D00020436F7079726967687420627920727406
:1040E0002D746872656164207465616D0A0000005A
:1040F000014600E0491C0A78002AFBD1081A7047E3
:1041000010B5002A07D0034611F8014B03F8014B04
:104110002CB1521EF8D110BD03F8011B00E00021A4
:10412000521EF9D110BD00002DE9F0410646C01C19
:104130000F4620F0030421F00305FCF741F8804608
:10414000FFF7ECF940B11B491BA0FFF731FAC5227C
:10415000184923A0FEF7CCFE4046FCF735F8182D91
:1041600021D9A5F11800A0421DD3281B1D4D1838D8
:104170004FF4F552AC606861228000210C30C4E934
:1041800001016180616800232144E9600A80012205
:104190004A804860886014A11548FFF71DFEA86892
:1041A0002861BDE8F0813A463146BDE8F04111A0F2
:1041B000FFF7FEB96055000846756E6374696F6E4F
:1041C0005B25735D207368616C6C206E6F74206278
:1041D00065207573656420696E204953520A00009A
:1041E00030000000400000206865617000000000A1
:1041F0001C1500206D656D20696E69742C20657238
:10420000726F7220626567696E20616464726573A3
:104210007320307825782C20616E6420656E6420D0
:104220006164647265737320307825780A00000039
:1042300010B50A4900230A4C4B80184604EBC00213
:10424000401C526012602028F8DB1F2008700348D1
:104250004B6010308B604060006010BDE4000020B7
:104260004415002010B5074CA068FDF78BFA0649ED
:10427000401E51F830001C386060BDE8104024300A
:10428000FBF7EBBFE400002044150020014840602C
:10429000006070471401002070472DE9FF478946F0
:1042A000DDE90C76824601461D4690460120FFF767
:1042B000E7FA041E0DD02846FFF7C2F960B1039655
:1042C0008DE8A10043464A4651462046FDF7FCFAD8
:1042D000204604B0BDE8F0872046FFF73FFB0020F2
:1042E000F7E7000070B513480468FBF769FF05465F
:1042F0002046FFF739FD042084F83C0004F1540007
:1043000000F01AFB2046FFF721FC012802D1D4F867
:10431000880058B104F11C010748FFF760F92846EE
:10432000FBF752FFBDE87040FFF7B2BC2046FFF735
:1043300061FBF4E7E8000020F4000020054D0024B4
:1043400055F8240000B18047641C042CF8D300F019
:1043500003F8F4E78C14002070B53AE0FBF730FF67
:104360000446FFF7DBF840B1214922A0FFF720F90E
:1043700099221F4929A0FEF7BBFD2046FBF724FF29
:10438000FBF71EFF0546FDF72FFA60B324480168CE
:10439000A1F11C04D1E900024260D1E900021060E1
:1043A00049600960FEF704FED4F8881009B1204680
:1043B00088472046FFF7CAFB01280FD0FEF706FE0C
:1043C0002846FBF701FF206BFEF71CFE2046FFF797
:1043D000C5FAFDF709FA0028C0D170BD2046FFF7E5
:1043E00009FBFEF7F3FD2846BDE87040FBF7ECBE85
:1043F0001552000846756E6374696F6E5B25735DB8
:10440000207368616C6C206E6F7420626520757318
:10441000656420696E204953520A00003000000094
:10442000F40000201FB5202308481F22D9008DE882
:104430000F000023064A07A1903800F00FF804B0DF
:104440000248BDE81040903800F094B88C1300206A
:104450003D4300087469646C650000002DE9FF5F4E
:104460009A46DDE90E48DDE9107693468946050057
:1044700004D1E6220D490EA0FEF73AFD24B9E72249
:104480000A4910A0FEF734FD4A4601212846FFF7ED
:1044900007FBCDE90048CDE9027653465A46494626
:1044A0002846FDF711FA04B0BDE8F09F4D5600080C
:1044B00074687265616420213D2052545F4E554CF2
:1044C0004C000000737461636B5F737461727420DD
:1044D000213D2052545F4E554C4C000070B50400F5
:1044E00005D140F2B522184918A0FEF701FD20467B
:1044F000FFF7BCFA012805D040F2B622124918484D
:10450000FEF7F6FC94F83C0000F00F00022802D001
:104510004FF0FF3070BDFBF753FE054604F11C0061
:10452000FFF784F804F1540000F03EFB2846FBF747
:104530004BFE2046FFF7DEFB0A48416809B12046E2
:104540008847002070BD0000C4560008746872657A
:10455000616420213D2052545F4E554C4C000000B8
:10456000D0580008FC000020014800687047000097
:10457000E800002010B5040005D14FF486721649FA
:1045800016A0FEF7B5FC94F83C00000705D040F2F9
:104590000D12114916A0FEF7ABFC2046FFF766FA94
:1045A000012805D04FF487720B491F48FEF7A0FC85
:1045B00094F83E00012184F83D00814002202164EE
:1045C00084F83C002046FFF789FF1848006808B1CE
:1045D000FFF75EFB002010BD5C5600087468726532
:1045E000616420213D2052545F4E554C4C00000028
:1045F000287468726561642D3E737461742026208E
:1046000052545F5448524541445F535441545F4DA6
:1046100041534B29203D3D2052545F54485245415F
:10462000445F494E49540000D0580008E80000207B
:1046300070B5040005D140F28A22194919A0FEF78D
:1046400057FC2046FFF712FA012805D040F28B22D2
:1046500013491948FEF74CFC94F83C0000F00F0099
:10466000012802D04FF0FF3070BDFBF7A9FD0546D1
:1046700094F83C0020F00F00801C84F83C00204699
:10468000FFF772FB04F1540000F08EFA2846FBF7A6
:104690009BFD0A48016809B120468847002070BD8B
:1046A000B256000874687265616420213D2052543E
:1046B0005F4E554C4C000000D0580008FC00002014
:1046C00010B5040005D140F2E222144914A0FEF70F
:1046D0000FFC94F83C0000F00F00022805D040F2D7
:1046E000E3220E4913A0FEF703FC2046FFF7BEF9B4
:1046F000012805D04FF4397208491D48FEF7F8FB30
:104700006FF00100A06304F11C00FEF78FFF20464C
:10471000FFF7F0FABDE81040FFF7BABAD556000827
:1047200074687265616420213D2052545F4E554C7F
:104730004C000000287468726561642D3E737461DA
:104740007420262052545F5448524541445F5354CC
:1047500041545F4D41534B29203D3D2052545F54FD
:1047600048524541445F53555350454E4400000064
:10477000D058000870B5FBF723FD064613480468BF
:1047800094F83C0000F00F00012819D1D4E907018A
:10479000884215D004F11C000546FEF747FF94F847
:1047A0003D000B4901EBC00041680D604168696044
:1047B000456028603046FBF707FDFFF769FA02E025
:1047C0003046FBF701FD002070BD0000E80000202E
:1047D00044150020014800687047000028000020B0
:1047E000094810B50168491C0160FFF7BDFE016D65
:1047F000491E016503D1C16C0165FFF7BBFFBDE830
:10480000104000F003B80000280000202DE9F0411E
:10481000FFF7E0FF0746FBF7D3FC1A4E804606F190
:104820000C0526E060691C3C391A6FF0004081429B
:1048300022D2716809B1204688472046FDF7B2F8B8
:10484000D4E909108847FFF7C5FFB168074609B1E9
:1048500020468847607C810708D5C10706D020F034
:1048600001006074204600F0F9F802E020F0010039
:1048700060742C68AC42D5D14046BDE8F041FBF7EE
:10488000A3BC00000801002070B515460E460400C8
:1048900005D14FF4E772134913A0FEF729FB204618
:1048A000FFF7E4F80A2805D040F2CF120D4913A013
:1048B000FEF71EFB4EB1012E04D0022E08D0032EAF
:1048C0000ED109E0E06A28600AE02868E06207E0AB
:1048D000607C20F0020002E0607C40F00200607426
:1048E000002070BD4157000874696D657220213D3C
:1048F0002052545F4E554C4C0000000072745F6FA4
:10490000626A6563745F6765745F74797065282691
:1049100074696D65722D3E706172656E7429203DFB
:104920003D2052545F4F626A6563745F436C6173EC
:10493000735F54696D65720070B5040004D1CF22B5
:10494000124913A0FEF7D4FA2046FFF78FF80A2881
:1049500004D0D0220D4913A0FEF7CAFA2046FFF773
:10496000F5F820B9D12209491DA0FEF7C1FAFBF7DD
:1049700027FC05462046FDF715F82846FBF724FCE2
:104980002046FFF737F8002070BD000004570008EC
:1049900074696D657220213D2052545F4E554C4C18
:1049A0000000000072745F6F626A6563745F676520
:1049B000745F74797065282674696D65722D3E7018
:1049C0006172656E7429203D3D2052545F4F626ACA
:1049D0006563745F436C6173735F54696D657200E6
:1049E00072745F6F626A6563745F69735F73797312
:1049F00074656D6F626A656374282674696D65728B
:104A00002D3E706172656E74290000002DE9F84337
:104A10001E46DDE9089590460F46040004D1BA22EF
:104A2000084909A0FEF764FA3A460A212046FFF732
:104A300037F84B463246414620460095FCF7A4FF26
:104A4000BDE8F883F656000874696D657220213D53
:104A50002052545F4E554C4C00000000F8B5040045
:104A600005D14FF49972304930A0FEF741FA204643
:104A7000FEF7FCFF0A2805D040F233122A4930A085
:104A8000FEF736FAFBF79CFB05462046FCF78AFF4B
:104A9000607C20F0010060742846FBF795FB3748E6
:104AA000016809B120468847E06A6FF00046B042CD
:104AB00005D340F243121C4931A0FEF719FAFFF763
:104AC00089FEE16A08442063FBF77AFB0546354A14
:104AD0000020009202EBC00269465368B4465DF8BC
:104AE00020200BE01268A2EBC0067769266BB74264
:104AF00002D0BE1B664503D341F820209A42F1D173
:104B000028480C380168491C016004F11C01009818
:104B1000FEF76CFD607C40F0010060742846FBF7F6
:104B200053FB0020F8BD00002457000874696D6530
:104B30007220213D2052545F4E554C4C0000000025
:104B400072745F6F626A6563745F6765745F7479BE
:104B50007065282674696D65722D3E706172656E90
:104B60007429203D3D2052545F4F626A6563745F33
:104B7000436C6173735F54696D6572006C00002053
:104B800074696D65722D3E696E69745F7469636BDB
:104B9000203C2052545F5449434B5F4D4158202FD5
:104BA000203200001401002070B5040005D140F24D
:104BB000AB12144914A0FEF79BF92046FEF756FFEE
:104BC0000A2805D04FF4D6720E4914A0FEF790F9CA
:104BD000607CC00713D02048016809B1204688478F
:104BE000FBF7EEFA05462046FCF7DCFE2846FBF70D
:104BF000EBFA607C20F001006074002070BD4FF083
:104C0000FF3070BD3357000874696D657220213D17
:104C10002052545F4E554C4C0000000072745F6F80
:104C2000626A6563745F6765745F7479706528266E
:104C300074696D65722D3E706172656E7429203DD8
:104C40003D2052545F4F626A6563745F436C6173C9
:104C5000735F54696D657200700000202DE9FF4F8D
:104C60008946044600EB090783B080464FF0FF3ABF
:104C70004FF0200BA74202D25746C8F1FF3907E197
:104C8000252803D0BC4200D2207081E0002605997F
:104C9000491C059108782D2811D02B2812D02028E6
:104CA00013D0232814D0302815D00A785546303A2E
:104CB0000A2A13D205A800F045F905461AE046F085
:104CC0001006E4E746F00406E1E746F00806DEE7F2
:104CD00046F02006DBE746F00106D8E72A2809D18E
:104CE0000698491C059120C80690002D02DA6D42F5
:104CF00046F01006CDF800A0059801782E2918D1AD
:104D0000401C05900178A1F130020A2A04D205A8BE
:104D100000F018F9009008E02A2908D1401C0590FD
:104D2000069802C8069000910846002801DA002083
:104D30000090059800210278682A01D06C2A02D1DF
:104D4000401C1146059000780A236F287DD00CDCAA
:104D500063281FD004DC25287BD058280DD17EE0A5
:104D6000642801D0692808D17DE070285ED07328BE
:104D70002CD0752879D0782873D0BC4201D2252058
:104D800020700598641C0178D1B3BC4200D2217018
:104D9000641C7AE0F00608D458466D1E002D04DD30
:104DA000BC4200D22070641CF7E70699BC4211F89F
:104DB000040B069100D22070584602E0BC4200D29B
:104DC0002070641C6D1E002DF8DC5EE0069808C89B
:104DD000069003B93EA31846FFF78AF90099002907
:104DE00002DD884200DD0846F1060AD459462A460B
:104DF0006D1E824205DDBC4200D22170641CF6E7C4
:104E000052E0002106E0BC4201D21A782270491C0F
:104E10005B1C641C8142F6DB5A4629466D1E8142AA
:104E200033DDBC4200D22270641CF6E7681C02D15C
:104E3000082546F0010600980296CDE90050069834
:104E40001023394604C806901BE006E001E00CE0A0
:104E500007E0BC429CD2252016E7082305E046F077
:104E60004006102301E046F002066C2901D06829B3
:104E70001DD0069804C8069000983946CDE9005028
:104E800002962046FDF774FF04460598401C0590E5
:104E90000598007800287FF4F3AEB9F1000F11D027
:104EA000BC420DD220700DE0401E0590EDE7069843
:104EB00030F8041B06908AB2B007DDD512B2DBE7EA
:104EC00007F8010C07B0A4EB0800BDE8F08F000064
:104ED000284E554C4C290000002070470020704798
:104EE000002070470020704710B5FBF769F9FEF706
:104EF00077F9FFF7A5F8FFF7C9F9FFF799F9FDF77B
:104F0000CFFFFFF7C9F9FFF78DFAFFF7ABF90020E4
:104F100010BD000070B5054604680BE0A4F11C014B
:104F200006A0FEF745FB2068A84202D004A0FEF7C9
:104F30003FFB2468AC42F1D170BD00002573000036
:104F40002F00000010B5014600206FF02F0307E08E
:104F5000541C0C60127800EB800003EB40001044FE
:104F60000A681478303C0A2CF2D310BD10B518A092
:104F7000FEF71EFB1A4C21881AA0FEF719FB2088A9
:104F8000C00702D01DA0FEF713FB2088800702D5C2
:104F90001DA0FEF70DFB2088400702D51DA0FEF7DF
:104FA00007FB2088000702D51CA0FEF701FB208824
:104FB000C00502D51BA0FEF7FBFA2088800502D5AC
:104FC0001BA0FEF7F5FABDE8104004A0FEF7F0BA0A
:104FD0007573616765206661756C743A0A0000003C
:104FE0002AED00E05343425F434653525F55465318
:104FF000523A30782530325820000000554E444552
:1050000046494E5354522000494E5653544154453C
:1050100020000000494E5650432000004E4F4350A0
:1050200020000000554E414C49474E4544200000A9
:1050300044495642595A45524F20000010B5FEF7D8
:10504000FFFF002010BD72745F72696E6762756643
:105050006665725F696E69740072745F72696E670B
:105060006275666665725F707574636861720072FE
:10507000745F72696E676275666665725F67657494
:10508000636861720000000000000000000102037C
:105090000406070809000000000102030466696EA7
:1050A00073685F6765745F70726F6D70745F6D6F4A
:1050B00064650066696E73685F7365745F70726FB4
:1050C0006D70745F6D6F64650066696E73685F73A1
:1050D00065745F6563686F0066696E73685F6765B6
:1050E000745F6563686F0068656C6C6F00766572ED
:1050F00073696F6E005F5F636D645F76657273697D
:105100006F6E006C6973745F746872656164005FD0
:105110005F636D645F6C6973745F7468726561640A
:10512000006C6973745F73656D005F5F636D645FCE
:105130006C6973745F73656D006C6973745F657619
:10514000656E74005F5F636D645F6C6973745F6547
:1051500076656E74006C6973745F6D757465780044
:105160005F5F636D645F6C6973745F6D75746578A0
:10517000006C6973745F6D61696C626F78005F5F6A
:10518000636D645F6C6973745F6D61696C626F7885
:10519000006C6973745F6D73677175657565005F29
:1051A0005F636D645F6C6973745F6D736771756560
:1051B0007565006C6973745F74696D6572005F5F1B
:1051C000636D645F6C6973745F74696D6572006CA4
:1051D000697374005F5F636D645F68656C70005F26
:1051E0005F636D645F7073005F5F636D645F6672C1
:1051F0006565005F6D73685F657865635F636D64A7
:105200000072745F6170706C69636174696F6E5F66
:10521000696E69740072745F7468726561645F6955
:10522000646C655F6578637574650072745F73653F
:105230006D5F696E69740072745F73656D5F64653C
:10524000746163680072745F73656D5F637265613A
:1052500074650072745F73656D5F64656C65746519
:105260000072745F73656D5F74616B650072745F6B
:1052700073656D5F72656C656173650072745F73F1
:10528000656D5F636F6E74726F6C0072745F6D75C5
:105290007465785F696E69740072745F6D757465AA
:1052A000785F6465746163680072745F6D757465BE
:1052B000785F6372656174650072745F6D757465A3
:1052C000785F64656C6574650072745F6D75746594
:1052D000785F74616B650072745F6D757465785F7B
:1052E00072656C656173650072745F6D7574657865
:1052F0005F636F6E74726F6C0072745F6576656E5B
:10530000745F696E69740072745F6576656E745F50
:105310006465746163680072745F6576656E745F5E
:105320006372656174650072745F6576656E745F43
:1053300064656C6574650072745F6576656E745F34
:1053400073656E640072745F6576656E745F726516
:1053500063760072745F6576656E745F636F6E74FA
:10536000726F6C0072745F6D625F696E6974007257
:10537000745F6D625F6465746163680072745F6D11
:10538000625F6372656174650072745F6D625F6411
:10539000656C6574650072745F6D625F73656E64E1
:1053A0005F776169740072745F6D625F72656376C6
:1053B0000072745F6D625F636F6E74726F6C007207
:1053C000745F6D715F696E69740072745F6D715F97
:1053D0006465746163680072745F6D715F637265A8
:1053E0006174650072745F6D715F64656C6574658E
:1053F0000072745F6D715F73656E640072745F6DCF
:10540000715F757267656E740072745F6D715F7243
:105410006563760072745F6D715F636F6E74726F37
:105420006C00000001000200010003000100020006
:10543000010004000100020001000300010002005D
:10544000010005000100020001000300010002004C
:10545000010004000100020001000300010002003D
:10546000010006000100020001000300010002002B
:10547000010004000100020001000300010002001D
:10548000010005000100020001000300010002000C
:1054900001000400010002000100030001000200FD
:1054A00001000700010002000100030001000200EA
:1054B00001000400010002000100030001000200DD
:1054C00001000500010002000100030001000200CC
:1054D00001000400010002000100030001000200BD
:1054E00001000600010002000100030001000200AB
:1054F000010004000100020001000300010002009D
:10550000010005000100020001000300010002008B
:10551000010004000100020001000300010002007C
:1055200001003031323334353637383961626364E3
:1055300065660030313233343536373839414243CD
:10554000444546006C6973745F6D656D0072745FED
:105550006672656500706C75675F686F6C65730077
:1055600072745F73797374656D5F686561705F698C
:105570006E69740072745F6D616C6C6F630072743D
:105580005F7265616C6C6F630072745F6F626A65F5
:1055900063745F696E69740072745F6F626A6563D9
:1055A000745F6465746163680072745F6F626A65DA
:1055B00063745F616C6C6F636174650072745F6FBC
:1055C000626A6563745F64656C6574650072745FBC
:1055D0006F626A6563745F69735F73797374656D15
:1055E0006F626A6563740072745F6F626A65637488
:1055F0005F6765745F747970650072745F6F626A6B
:105600006563745F66696E640072745F7363686576
:1056100064756C655F696E736572745F74687265DA
:1056200061640072745F7363686564756C655F7252
:10563000656D6F76655F746872656164005F727432
:105640005F7468726561645F696E69740072745F2B
:105650007468726561645F696E69740072745F7406
:1056600068726561645F73746172747570007274DE
:105670005F7468726561645F646574616368007219
:10568000745F7468726561645F64656C65746500FD
:1056900072745F7468726561645F736C65657000D5
:1056A00072745F7468726561645F636F6E74726F49
:1056B0006C0072745F7468726561645F7375737097
:1056C000656E640072745F7468726561645F7265B0
:1056D00073756D650072745F7468726561645F7480
:1056E000696D656F75740072745F7468726561646A
:1056F0005F66696E640072745F74696D65725F697C
:105700006E69740072745F74696D65725F6465744C
:105710006163680072745F74696D65725F64656C63
:105720006574650072745F74696D65725F7374612E
:1057300072740072745F74696D65725F73746F70F8
:105740000072745F74696D65725F636F6E74726FFF
:105750006C000000252D2A2E7320707269202073A2
:105760007461747573202020202020737020202005
:105770002020737461636B2073697A65206D617892
:105780002075736564206C656674207469636B2092
:10579000206572726F720A0072745F6F626A65636D
:1057A000745F6765745F74797065282673656D2D05
:1057B0003E706172656E742E706172656E74292020
:1057C0003D3D2052545F4F626A6563745F436C6174
:1057D00073735F53656D6170686F726500000000E0
:1057E0002872745F75696E7433325F742928287269
:1057F000745F75696E74385F74202A296D656D2039
:105800002B2053495A454F465F5354525543545FDA
:105810004D454D2920252052545F414C49474E5F4C
:1058200053495A45203D3D20300000002872745FE6
:1058300075696E74385F74202A29726D656D203E1B
:105840003D202872745F75696E74385F74202A2950
:10585000686561705F707472202626202872745FFC
:1058600075696E74385F74202A29726D656D203CED
:10587000202872745F75696E74385F74202A2968F5
:105880006561705F656E64002872745F75696E741F
:1058900033325F74296D656D202B2053495A454F73
:1058A000465F5354525543545F4D454D202B207352
:1058B000697A65203C3D202872745F75696E743387
:1058C000325F7429686561705F656E640000000076
:1058D00072745F6F626A6563745F6765745F747921
:1058E0007065282872745F6F626A6563745F7429DB
:1058F00074687265616429203D3D2052545F4F6297
:105900006A6563745F436C6173735F546872656149
:1059100064000000E54E0008DD4E0008D94E000886
:10592000611B0008E14E0008E7500008F91E00085E
:10593000ED5000083D500008F55000083D500008AB
:1059400003510008152600080F510008152600080D
:1059500021510008F92400082A510008F924000800
:10596000395100086D1F0008445100086D1F0008E0
:105970005551000801240008605100080124000866
:1059800071510008292100087E51000829210008D2
:1059900091510008D92200089F510008D92200081F
:1059A000B3510008CD270008BE510008CD270008DC
:1059B000CF510008191F0008D4510008312B0008EE
:1059C000DF510008AB1A0008E8510008A11A0008CE
:1059D000445500086D220008F85900080000002016
:1059E0002C01000070040008405A00082C0100201F
:1059F0001C190000D817000832018210036524F436
:105A0000297422782A2004329032021A880C290440
:105A1000322832031A980C2904322C32041AA80CAA
:105A20002904292032051AB80C2904323832061A02
:105A3000C80C2904323C320A1AD80C2904024B340F
:040000050800018965
:00000001FF
